0040000000000000001119744010009000900000346040100000007135359200000000002800000202501151052421487023600000000000200000000 OPO CALLAO GINGER MARINA          0301029403
0040000000000000001120808010009000900000489040100000007135359200000000000300000202501151052551487023600000000000200000000 OPO CALLAO GINGER MARINA          0301029403
0040000000000000000692538010009000900000346040100000007167039800000000002800000202501150920544204025000000000000200000000ACOSTA RUIZ ANDERSON JOSHUA        0301029403
0040000000000000000693781010009000900000489040100000007167039800000000000300000202501150921114204025000000000000200000000ACOSTA RUIZ ANDERSON JOSHUA        0301029403
0040000000000000001045794010009000900000357040100000004422815200000000000100000202501151036547371030100000000000200000000ADRIANZEN CORDOVA OLIVIA ROXAN     0301029403
0040000000000000001935229010009000900000346040100000006030878500000000002800000202501151416201873030100000000000200000000ADRIANZEN GUEVARA KENYI            0301029403
0040000000000000001936368010009000900000489040100000006030878500000000000300000202501151416411873030100000000000200000000ADRIANZEN GUEVARA KENYI            0301029403
004020061652I     17126100000010001000003570101               00000000000100000202501151310391546030100000000000200000000AGUILAR                       ODAR 0301029403
004020061652I     17117560000010001000003570101               00000000000100000202501151310251546030100000000000200000000AGUILAR                       ODAR 0301029403
0040000000000000002220452010009000900000346040100000006107639400000000002800000202501151537322463024800000000000200000000AGURTO CLAVO PRISCILA DAYANA       0301029403
0040000000000000001492400010009000900000925040100000001672620900000000000200000202501151214570821030100000000000200000000ALARCON BUSTAMANTE RAQUEL          0301029403
0040000000000000001459703010009000900000922040100000001672620900000000005200000202501151207130821030100000000000200000000ALARCON BUSTAMANTE RAQUEL          0301029403
0040000000000000002456459010009000900000489040100000007117731100000000000300000202501151638253710023100000000000200000000ALARCON HUAMAN DAVID ISMAEL        0301029403
0040000000000000002455497010009000900000345040100000007117731100000000003800000202501151638113710023100000000000200000000ALARCON HUAMAN DAVID ISMAEL        0301029403
0040000000000000001847308010009000900000489040100000007136560700000000000300000202501151350134207025000000000000200000000ALBAN HUAMAN GERARDO JESUS         0301029403
0040000000000000001846467010009000900000346040100000007136560700000000002800000202501151349584207025000000000000200000000ALBAN HUAMAN GERARDO JESUS         0301029403
0040000000000000002232232010009000900000350040100000003264499900000000003750010202501151540401873030100000000000200000000ALBORNOZ ARNAO GEORGINA IRMA       0301029403
0040000000000000002234163010009000900000925040100000003264499900000000000200000202501151541101873030100000000000200000000ALBORNOZ ARNAO GEORGINA IRMA       0301029403
0040000000000000002233310010009000900000924040100000003264499900000000000500000202501151540571873030100000000000200000000ALBORNOZ ARNAO GEORGINA IRMA       0301029403
0040000000000000002227408010009000900000950040100000003264499900000000002500000202501151539211873030100000000000200000000ALBORNOZ ARNAO GEORGINA IRMA       0301029403
0040000000000000001134593010009000900000021040100000004500645400000000008500000202501151055587371030100000000000200000000ALFONSO FIESTAS ELIAS              0301029403
0040000000000000001131230010009000900000358040100000004500645400000000000300000202501151055137371030100000000000200000000ALFONSO FIESTAS ELIAS              0301029403
0040000000000000001070121010009000900000357040100000004608714000000000000100000202501151042061546030100000000000200000000ALTAMIRANO CARRANZA EMILIANA       0301029403
0040000000000000001424717010009000900000345040100000006113515300000000003800000202501151159180821030100000000000200000000ALVARADO CARRASCO YULLISA DEL      0301029403
0040000000000000001425881010009000900000489040100000006113515300000000000300000202501151159330821030100000000000200000000ALVARADO CARRASCO YULLISA DEL      0301029403
0040000000000000001693617010009000900000346040100000007119001900000000002800000202501151305256753030100000000000200000000ALVAREZ ORRIAGA ESTEFANY YAMIL     0301029403
0040000000000000001695207010009000900000489040100000007119001900000000000300000202501151305526753030100000000000200000000ALVAREZ ORRIAGA ESTEFANY YAMIL     0301029403
0040000000000000002207059010009000900000844040100000007253286000000000001400000202501151533582124066300000000000200000000ALVAREZ RODRIGUEZ DANITZA MARI     0301029403
0040000000000000001122741010009000900000896040100000007686072900000000000100000202501151053201481024200000000000200000000ALVITES ALVITES LISET CAROLINA     0301029403
0040000000000000001136389010009000900000346040100000006135727500000000002800000202501151056232561030100000000000200000000ANCAJIMA  ACOSTA  MARCOS DAVID     0301029403
0040000000000000002586557010009000900000206040100000007184819900000000003250000202501151710476434024800000000000200000000ANGASPILCO GONZALES NATHALY NI     0301029403
0040000000000000002587521010009000900000358040100000007184819900000000000300000202501151711036434024800000000000200000000ANGASPILCO GONZALES NATHALY NI     0301029403
0040000000000000000494502010009000900000489040100000006113028200000000000300000202501150830592854023000000000000200000000ANGELES APONTE ANTONELA NARUMY     0301029403
0040000000000000000497767010009000900000344040100000006113028200000000000100000202501150831522854023000000000000200000000ANGELES APONTE ANTONELA NARUMY     0301029403
0040000000000000000491619010009000900000346040100000006113028200000000002800000202501150830092854023000000000000200000000ANGELES APONTE ANTONELA NARUMY     0301029403
0040000000000000002139739010009000900000450040100000007349490800000000000050000202501151515511736025200000000000200000000ARANDA SAAVEDRA  CRISTHIAN         0301029403
0040000000000000001168270010009000900000896040100000004418887800000000000100000202501151103161658053400000000000200000000ARAUJO CASTRO LUSBETH              0301029403
0040000000000000001169824010009000900000896040100000004418887800000000000100000202501151103351658053400000000000200000000ARAUJO CASTRO LUSBETH              0301029403
0040000000000000001171461010009000900000896040100000004418887800000000000100000202501151103571658053400000000000200000000ARAUJO CASTRO LUSBETH              0301029403
0040000000000000001170742010009000900000896040100000004418887800000000000100000202501151103471658053400000000000200000000ARAUJO CASTRO LUSBETH              0301029403
0040000000000000001166755010009000900000898040100000004418887800000000000200000202501151102571658053400000000000200000000ARAUJO CASTRO LUSBETH              0301029403
0040000000000000002222134010009000900000358040100000007465195100000000000300000202501151537591035023100000000000200000000ARENAS SANCHEZ ANA PAULA           0301029403
0040000000000000002217401010009000900000206040100000007465195100000000003250000202501151536431035023100000000000200000000ARENAS SANCHEZ ANA PAULA           0301029403
0040000000000000002187785010009000900000898040100000004657853500000000000200000202501151528440821030100000000000200000000ARROYO MALCA SEBASTIAN ANDRES      0301029403
0040000000000000002188979010009000900000896040100000004657853500000000000100000202501151529040821030100000000000200000000ARROYO MALCA SEBASTIAN ANDRES      0301029403
0040000000000000001425968010009000900000050040100000007535897000000000003250000202501151159344119023100000000000200000000ARRUNATEGUI HIDROGO DORIS FABR     0301029403
0040000000000000001429861010009000900000358040100000007535897000000000000300000202501151200284119023100000000000200000000ARRUNATEGUI HIDROGO DORIS FABR     0301029403
0040000000000000001687459010009000900000344040100000007118100300000000000100000202501151303491546030100000000000200000000BACA CABRERA ABEL FABIAN           0301029403
0040000000000000001334540010009000900000489040100000006126056700000000000300000202501151139193540023400000000000200000000BAJONERO LLAGUENTO ARIANA LIZE     0301029403
0040000000000000001329556010009000900000345040100000006126056700000000003800000202501151138173540023400000000000200000000BAJONERO LLAGUENTO ARIANA LIZE     0301029403
0040000000000000000716010010009000900000346040100000006109829000000000002800000202501150926056508030900000000000200000000BALDERA LLAUCE MARY JANIRA         0301029403
0040000000000000000717204010009000900000489040100000006109829000000000000300000202501150926206508030900000000000200000000BALDERA LLAUCE MARY JANIRA         0301029403
0040000000000000001471048010009000900000489040100000006121984500000000000300000202501151209511730030400000000000200000000BANCES CORONADO ROSA  ARACELY      0301029403
0040000000000000001470069010009000900000346040100000006121984500000000002800000202501151209371730030400000000000200000000BANCES CORONADO ROSA  ARACELY      0301029403
0040000000000000001621393010009000900000875040100000004601258900000000006000010202501151246312991023400000000000200000000BARRERA RACCHUMI JUDITH ARACEL     0301029403
0040000000000000000813136010009000900000345040100000007135249500000000003800000202501150947162850023000000000000200000000BAZAN REQUEJO MARIA ALEJANDRA      0301029403
0040000000000000001906089010009000900000345040100000006062679600000000003800000202501151407471228027100000000000200000000BAZAN URIARTE ALISSON YAZMIN       0301029403
0040000000000000001907262010009000900000489040100000006062679600000000000300000202501151408081228027100000000000200000000BAZAN URIARTE ALISSON YAZMIN       0301029403
0040000000000000000754268010009000900000346040100000006124273900000000002800000202501150934306408030600000000000200000000BECERRA ODAR LUIS EDGAR            0301029403
0040000000000000002508432010009000900000857040100000007202084900000000000300000202501151651171546030100000000000200000000BENITES ZE A NALLELY GORETTY       0301029403
004020155263F     06802140000010001000000500101               00000000003250000202501150918044120023100000000000200000000BERMEO                        YANGU0301029403
0040000000000000000861508010009000900000927040100000004870267800000000000350000202501150957426764023100000000000200000000BERMEO YANGUA KATERYN MELISSA      0301029403
004020155263F     06811440000010001000003580101               00000000000300000202501150918164120023100000000000200000000BERMEO                        YANGU0301029403
0040000000000000002220752010009000900000489040100000007072189700000000000300000202501151537376753030100000000000200000000BERNILLA MINCHAN BOOZ JAIRO AN     0301029403
0040000000000000002219937010009000900000345040100000007072189700000000003800000202501151537246753030100000000000200000000BERNILLA MINCHAN BOOZ JAIRO AN     0301029403
0040000000000000000756475010009000900000285040100000007333456700000000000100000202501150935009196098700000000000200000000BLANCA ROSA ELENA AYASTA CASIA     0301029403
0040000000000000001039381010009000900000346040100000007116012400000000002800000202501151035324210025000000000000200000000BRAVO DURAND ARIANA BRUNELLA       0301029403
0040000000000000001042402010009000900000489040100000007116012400000000000300000202501151036124210025000000000000200000000BRAVO DURAND ARIANA BRUNELLA       0301029403
0040000000000000000847957010009000900000346040100000007116798100000000002800000202501150954482779023000000000000200000000BURGOS MONJA KIARA MILEY           0301029403
0040000000000000000850082010009000900000489040100000007116798100000000000300000202501150955132779023000000000000200000000BURGOS MONJA KIARA MILEY           0301029403
0040000000000000000851315010009000900000344040100000007116798100000000000100000202501150955292779023000000000000200000000BURGOS MONJA KIARA MILEY           0301029403
004020190039A     24132160000010001000003580101               00000000000300000202501151627412852023000000000000200000000BUSTAMANTE                    CASTA0301029403
004020190039A     24079980000010001000002060101               00000000003250000202501151626212852023000000000000200000000BUSTAMANTE                    CASTA0301029403
0040000000000000000784829010009000900000346040100000006031134900000000002800000202501150941237393027100000000000200000000BUSTAMANTE CUBAS WESLY ANDERSO     0301029403
0040000000000000000785544010009000900000489040100000006031134900000000000300000202501150941347393027100000000000200000000BUSTAMANTE CUBAS WESLY ANDERSO     0301029403
0040000000000000001796819010009000900000345040100000007116595500000000003800000202501151335081487023600000000000200000000BUSTAMANTE LLONTOP BRUNO LUIS      0301029403
0040000000000000001797507010009000900000489040100000007116595500000000000300000202501151335221487023600000000000200000000BUSTAMANTE LLONTOP BRUNO LUIS      0301029403
0040000000000000002430259010009000900000345040100000006126393600000000003800000202501151631555370029100000000000200000000CABELLOS QUESQUEN AARON ALEJAN     0301029403
0040000000000000002431720010009000900000489040100000006126393600000000000300000202501151632175370029100000000000200000000CABELLOS QUESQUEN AARON ALEJAN     0301029403
0040000000000000001519370010009000900000489040100000006062765100000000000300000202501151221261546030100000000000200000000CABREJOS MARTINEZ YAHIR ALEXAN     0301029403
0040000000000000001520882010009000900000345040100000006062765100000000003800000202501151221481546030100000000000200000000CABREJOS MARTINEZ YAHIR ALEXAN     0301029403
0040000000000000001379521010009000900000344040100000007094955200000000000100000202501151149134207025000000000000200000000CACEDA PUPUCHE DAIANA BRIGITH      0301029403
0040000000000000001377811010009000900000345040100000007094955200000000003800000202501151148504207025000000000000200000000CACEDA PUPUCHE DAIANA BRIGITH      0301029403
0040000000000000001378732010009000900000489040100000007094955200000000000300000202501151149034207025000000000000200000000CACEDA PUPUCHE DAIANA BRIGITH      0301029403
0040000000000000002295089010009000900000489040100000006115725800000000000300000202501151557221487023600000000000200000000CACHAY HUANCAS SMITH ALEXANDER     0301029403
0040000000000000002294200010009000900000345040100000006115725800000000003800000202501151557081487023600000000000200000000CACHAY HUANCAS SMITH ALEXANDER     0301029403
004020190026G     21704730000010001000002060101               00000000003250000202501151524056764023100000000000200000000CADENAS                       PARIA0301029403
004020190026G     21724880000010001000003580101               00000000000300000202501151524386764023100000000000200000000CADENAS                       PARIA0301029403
0040000000000000000505258010009000900000344040100000006025771400000000000100000202501150833556753030100000000000200000000CAICEDO VASQUEZ MARIANA LISBET     0301029403
0040000000000000002371416010009000900000346040100000006113043400000000002800000202501151617114119023100000000000200000000CAJO RAMOS MARCOS MANUEL           0301029403
0040000000000000001658186010009000900000346040100000007168765100000000002800000202501151256014207025000000000000200000000CAMPOS ADANAQUE ALISSON            0301029403
0040000000000000001659435010009000900000489040100000007168765100000000000300000202501151256224207025000000000000200000000CAMPOS ADANAQUE ALISSON            0301029403
0040000000000000001660242010009000900000344040100000007168765100000000000100000202501151256354207025000000000000200000000CAMPOS ADANAQUE ALISSON            0301029403
0040000000000000002489281010009000900000346040100000006050373200000000002800000202501151646333647024800000000000200000000CAMPOS BOLA OS EITTEL ASHOVI       0301029403
0040000000000000002586294010009000900000489040100000006050373200000000000300000202501151710433647024800000000000200000000CAMPOS BOLA OS EITTEL ASHOVI       0301029403
0040000000000000001100260010009000900000345040100000006132585200000000003800000202501151048333540023400000000000200000000CARMONA GUEVARA JHENIFER YADIR     0301029403
0040000000000000001102388010009000900000489040100000006132585200000000000300000202501151049013540023400000000000200000000CARMONA GUEVARA JHENIFER YADIR     0301029403
0040000000000000002450641010009000900000346040100000006128405400000000002800000202501151637002854023000000000000200000000CARRASCO BUSTAMANTE ARLETH DEL     0301029403
0040000000000000002453430010009000900000489040100000006128405400000000000300000202501151637412854023000000000000200000000CARRASCO BUSTAMANTE ARLETH DEL     0301029403
0040000000000000002462898010009000900000344040100000006128405400000000000100000202501151640012854023000000000000200000000CARRASCO BUSTAMANTE ARLETH DEL     0301029403
004020190296D     21141280000010001000009270101               00000000000350000202501151508500994001400000000000200000000CARRASCO                      MANCH0301029403
004020190296D     21130290000010001000003580101               00000000000300000202501151508320994001400000000000200000000CARRASCO                      MANCH0301029403
0040000000000000001264630010009000900000345040100000006128411500000000003800000202501151124101307023100000000000200000000CARRASCO SAMILLAN FATIMA VALER     0301029403
0040000000000000001695376010009000900000345040100000006114934500000000003800000202501151305551546030100000000000200000000CARRERO HUACHEZ ELKI ALEXANDER     0301029403
0040000000000000001693833010009000900000489040100000006114934500000000000300000202501151305291546030100000000000200000000CARRERO HUACHEZ ELKI ALEXANDER     0301029403
0040000000000000001027934010009000900000926040100000000370079500000000000500000202501151033076753030100000000000200000000CARUAJULCA DOMINGUEZ NILTON CE     0301029403
0040000000000000001025197010009000900000913040100000000370079500000000003000000202501151032326753030100000000000200000000CARUAJULCA DOMINGUEZ NILTON CE     0301029403
0040000000000000000657796010009000900000346040100000007116913600000000002800000202501150912562779023000000000000200000000CASARO DELGADO JUNIOR CESAR        0301029403
0040000000000000000659471010009000900000489040100000007116913600000000000300000202501150913202779023000000000000200000000CASARO DELGADO JUNIOR CESAR        0301029403
0040000000000000001228068010009000900000346040100000006326637100000000002800000202501151116082779023000000000000200000000CASTILLO CAMACHO ROXANA ESMERA     0301029403
004020180187H     06949730000010001000004650101               00000000000100000202501150921271307023100000000000200000000CASTILLO                      PINTA0301029403
0040000000000000002061495010009000900000135040100000001643319400000000000200000202501151453573540023400000000000200000000CASTRO FERRE JOSE DANIEL           0301029403
0040000000000000001444407010009000900000345040100000006125617300000000003800000202501151203437371030100000000000200000000CASTRO REYES LUCIANA CONSUELO      0301029403
0040000000000000001445305010009000900000489040100000006125617300000000000300000202501151203557371030100000000000200000000CASTRO REYES LUCIANA CONSUELO      0301029403
0040000000000000001857607010009000900000346040100000006056039600000000002800000202501151353207371030100000000000200000000CASTRO VEGA JOHANNA ELIZABETH      0301029403
0040000000000000001858363010009000900000489040100000006056039600000000000300000202501151353337371030100000000000200000000CASTRO VEGA JOHANNA ELIZABETH      0301029403
0040000000000000001135735010009000900000881040100000004199975800000000001000000202501151056141633023800000000000200000000CENTURION MAYORGA CARLOS MARTI     0301029403
0040000000000000001137357010009000900000881040100000004199975800000000001000000202501151056371633023800000000000200000000CENTURION MAYORGA CARLOS MARTI     0301029403
0040000000000000001450997010009000900000344040100000007206556900000000000100000202501151205137372030100000000000200000000CERNA CARRION FRANK OLIVER         0301029403
0040000000000000002579605010009000900000358040100000007447868800000000000300000202501151709010321023100000000000200000000CESPEDES BERNILLA LUZ MARIXZA      0301029403
0040000000000000002574197010009000900000206040100000007447868800000000003250000202501151707360321023100000000000200000000CESPEDES BERNILLA LUZ MARIXZA      0301029403
0040000000000000002479644010009000900000344040100000007115265900000000000100000202501151644116753030100000000000200000000CHACON VINCES YUREM ANTONIO        0301029403
0040000000000000002343865010009000900000172040100000007570913000000000000100000202501151610094995023400000000000200000000CHANAME CUBAS KAROL IVONNE         0301029403
0040000000000000002110375010009000900000345040100000007096373700000000003800000202501151507471707023300000000000200000000CHANCAFE CASAS BRIGITTE LORELE     0301029403
0040000000000000002111054010009000900000489040100000007096373700000000000300000202501151507591707023300000000000200000000CHANCAFE CASAS BRIGITTE LORELE     0301029403
0040000000000000000839676010009000900000345040100000006113016800000000003800000202501150953010821030100000000000200000000CHAPO AN QUI ONES CARLOS ALBER     0301029403
0040000000000000000841874010009000900000489040100000006113016800000000000300000202501150953310821030100000000000200000000CHAPO AN QUI ONES CARLOS ALBER     0301029403
0040000000000000000740396010009000900000346040100000006058143900000000002800000202501150931260821030100000000000200000000CHAPO AN SANDOVAL NURY PAOLA       0301029403
0040000000000000000741367010009000900000489040100000006058143900000000000300000202501150931400821030100000000000200000000CHAPO AN SANDOVAL NURY PAOLA       0301029403
0040000000000000000440195010009000900000346040100000006123752400000000002800000202501150815160821030100000000000200000000CHAPO AN SANTISTEBAN LEYDI         0301029403
0040000000000000000441036010009000900000489040100000006123752400000000000300000202501150815320821030100000000000200000000CHAPO AN SANTISTEBAN LEYDI         0301029403
0040000000000000001542548010009000900000346040100000006112957500000000002800000202501151226556753030100000000000200000000CHAPO AN SUCLUPE BLANCA BELEN      0301029403
0040000000000000001543186010009000900000489040100000006112957500000000000300000202501151227056753030100000000000200000000CHAPO AN SUCLUPE BLANCA BELEN      0301029403
0040000000000000001654381010009000900000489040100000006153938400000000000300000202501151255001546030100000000000200000000CHAVESTA CORDOVA BRAYAN STICK      0301029403
0040000000000000001656690010009000900000345040100000006153938400000000003800000202501151255381546030100000000000200000000CHAVESTA CORDOVA BRAYAN STICK      0301029403
0040000000000000001736367010009000900000344040100000007094947100000000000100000202501151317232850023000000000000200000000CHAVEZ BUSTAMANTE RAQUEL AYME      0301029403
0040000000000000001735505010009000900000489040100000007094947100000000000300000202501151317072850023000000000000200000000CHAVEZ BUSTAMANTE RAQUEL AYME      0301029403
0040000000000000001734407010009000900000346040100000007094947100000000002800000202501151316482850023000000000000200000000CHAVEZ BUSTAMANTE RAQUEL AYME      0301029403
0040000000000000000517544010009000900000344040100000007117963200000000000100000202501150837197371030100000000000200000000CHAVEZ GONZALES ANGEL GABRIEL      0301029403
0040000000000000000415902010009000900000489040100000007205205500000000000300000202501150808074204025000000000000200000000CHAVEZ SUXE LUIS ANGEL JOSE        0301029403
0040000000000000000415081010009000900000345040100000007205205500000000003800000202501150807524204025000000000000200000000CHAVEZ SUXE LUIS ANGEL JOSE        0301029403
0040000000000000001212023010009000900000854040100000007277728100000000000500000202501151112370426030100000000000200000000CHERO CORREA DIEGO ALDAIR          0301029403
0040000000000000001073659010009000900000345040100000007115526000000000003800000202501151042501307023100000000000200000000CHIQUINTA SANANDRES MIRELLA        0301029403
0040000000000000001075010010009000900000344040100000007115526000000000000100000202501151043081307023100000000000200000000CHIQUINTA SANANDRES MIRELLA        0301029403
0040000000000000002538649010009000900000288040100000001675120300000000008500000202501151658484207025000000000000200000000CHU E YGNACIO JOSE JOHAN           0301029403
0040000000000000000597393010009000900000346040100000006058406200000000002800000202501150858163608030500000000000200000000CHUNGA ARBAIZA AXEL JOSE           0301029403
0040000000000000000598509010009000900000489040100000006058406200000000000300000202501150858333608030500000000000200000000CHUNGA ARBAIZA AXEL JOSE           0301029403
0040000000000000002154694010009000900000896040100000007333291100000000000100000202501151519490821030100000000000200000000CHUNGA GUTIERREZ SOFIA A           0301029403
0040000000000000002161533010009000900000896040100000007333291100000000000100000202501151521390821030100000000000200000000CHUNGA GUTIERREZ SOPHIA   A        0301029403
0040000000000000001276461010009000900000933040100000007312175700000000001000000202501151126412463024800000000000200000000CHUNGA MORALES DIANA ELIZABETH     0301029403
0040000000000000000906908010009000900000896040100000003380350000000000000100000202501151007314591026100000000000200000000CHUQUIPIONDO HUAMAN MANUELA ME     0301029403
0040000000000000000909464010009000900000896040100000003380350000000000000100000202501151008034591026100000000000200000000CHUQUIPIONDO HUAMAN MANUELA ME     0301029403
0040000000000000000908624010009000900000896040100000003380350000000000000100000202501151007524591026100000000000200000000CHUQUIPIONDO HUAMAN MANUELA ME     0301029403
0040000000000000000908041010009000900000896040100000003380350000000000000100000202501151007454591026100000000000200000000CHUQUIPIONDO HUAMAN MANUELA ME     0301029403
0040000000000000000905032010009000900000894040100000003380350000000000002500000202501151007074591026100000000000200000000CHUQUIPIONDO HUAMAN MANUELA ME     0301029403
0040000000000000001526415010009000900000346040100000006102765100000000002800000202501151223060925027100000000000200000000CIEZA BUSTAMANTE JHANNELA BRIG     0301029403
0040000000000000001523705010009000900000489040100000006102765100000000000300000202501151222270925027100000000000200000000CIEZA BUSTAMANTE JHANNELA BRIG     0301029403
0040000000000000001822198010009000900000345040100000007116671300000000003800000202501151342431307023100000000000200000000CLAVIJO CRUZ IVAN EDUARDO          0301029403
0040000000000000001823851010009000900000344040100000007116671300000000000100000202501151343141307023100000000000200000000CLAVIJO CRUZ IVAN EDUARDO          0301029403
0040000000000000001823027010009000900000489040100000007116671300000000000300000202501151342591307023100000000000200000000CLAVIJO CRUZ IVAN EDUARDO          0301029403
0040000000000000001766922010009000900000489040100000006110130900000000000300000202501151326162561030100000000000200000000COBE AS SHAHUANO FLOR DE MARIA     0301029403
0040000000000000001764595010009000900000345040100000006110130900000000003800000202501151325352561030100000000000200000000COBE AS SHAHUANO FLOR DE MARIA     0301029403
0040000000000000002400312010009000900000927040100000007549821400000000000350000202501151624265520031400000000000200000000CONDE LALANGUI DENIS OBERTI        0301029403
0040000000000000001794130010009000900000489040100000007117961300000000000300000202501151334203710023100000000000200000000CONSTANTINO AGUILAR MARIA ROSA     0301029403
0040000000000000001792768010009000900000346040100000007117961300000000002800000202501151333553710023100000000000200000000CONSTANTINO AGUILAR MARIA ROSA     0301029403
0040000000000000001859019010009000900000346040100000006026968500000000002800000202501151353462561030100000000000200000000CONTRERAS CONTRERAS ABIGAIL        0301029403
0040000000000000001860511010009000900000489040100000006026968500000000000300000202501151354112561030100000000000200000000CONTRERAS CONTRERAS ABIGAIL        0301029403
0040000000000000001843012010009000900000346040100000006058488400000000002800000202501151349017371030100000000000200000000CORDOVA CHINCHAY PATRICIA PAOL     0301029403
0040000000000000001843710010009000900000489040100000006058488400000000000300000202501151349127371030100000000000200000000CORDOVA CHINCHAY PATRICIA PAOL     0301029403
0040000000000000002063325010009000900000345040100000007167601500000000003800000202501151454291309023100000000000200000000CORDOVA MALCA CESAR ALEJANDRO      0301029403
0040000000000000001190533010009000900000489040100000006111259000000000000300000202501151108037371030100000000000200000000CORDOVA VEGA CESAR ESGARDO         0301029403
0040000000000000001189339010009000900000346040100000006111259000000000002800000202501151107477371030100000000000200000000CORDOVA VEGA CESAR ESGARDO         0301029403
0040000000000000002207644010009000900000345040100000007119201400000000003800000202501151534081546030100000000000200000000CORNEJO SERNAQUE ADRIAN ALEXAN     0301029403
0040000000000000002205913010009000900000489040100000007119201400000000000300000202501151533401546030100000000000200000000CORNEJO SERNAQUE ADRIAN ALEXAN     0301029403
004020200105A     28859390000010001000008440101               00000000001400000202501151852149172098700000000000200000000CORONEL                       LUCER0301029403
0040000000000000002028104010009000900000346040100000006058566200000000002800000202501151444051873030100000000000200000000CORONEL SAAVEDRA NOYMER BRAYAN     0301029403
0040000000000000002028713010009000900000489040100000006058566200000000000300000202501151444161873030100000000000200000000CORONEL SAAVEDRA NOYMER BRAYAN     0301029403
0040000000000000001523526010009000900000875040100000007102933300000000006000010202501151222254996023400000000000200000000COYCO NEIRA SORY LORENA            0301029403
0040000000000000001527228010009000900000879040100000007102933300000000001000000202501151223174996023400000000000200000000COYCO NEIRA SORY LORENA            0301029403
0040000000000000002216642010009000900000345040100000007117223500000000003800000202501151536312463024800000000000200000000CUEA SALAZAR YORKA YAZURI          0301029403
0040000000000000001943892010009000900000014040100000002956059100000000001200010202501151418570821030100000000000200000000CUENTAS MEDINA JULISA FLOR DE      0301029403
0040000000000000001981233010009000900000346040100000007205335200000000002800000202501151430133647024800000000000200000000CUEVA MANRIQUE CRISTHOFER KEVI     0301029403
0040000000000000001982348010009000900000489040100000007205335200000000000300000202501151430363647024800000000000200000000CUEVA MANRIQUE CRISTHOFER KEVI     0301029403
0040000000000000002260033010009000900000489040100000007117223500000000000300000202501151548062467024800000000000200000000CUEVA SALAZAR YORKA YAZURI         0301029403
0040000000000000000840740010009000900000346040100000006055492000000000002800000202501150953161708023300000000000200000000CUMPA NECIOSUP ELVIS JUNIOR        0301029403
0040000000000000000839375010009000900000489040100000006055492000000000000300000202501150952581708023300000000000200000000CUMPA NECIOSUP ELVIS JUNIOR        0301029403
0040000000000000001732759010009000900000489040100000006072672900000000000300000202501151316201487023600000000000200000000CUSTODIO GONZALES WALTER JUNIO     0301029403
0040000000000000001732053010009000900000345040100000006072672900000000003800000202501151316071487023600000000000200000000CUSTODIO GONZALES WALTER JUNIO     0301029403
0040000000000000002159047010009000900000489040100000006053039200000000000300000202501151520581728030900000000000200000000DAMIAN CHAPO AN JHOSEP SANTOS      0301029403
0040000000000000002157397010009000900000345040100000006053039200000000003800000202501151520331728030900000000000200000000DAMIAN CHAPO AN JHOSEP SANTOS      0301029403
0040000000000000002480397010009000900000489040100000007071797000000000000300000202501151644226508030900000000000200000000DAMIAN ROALCABA JOSIAS FERNAND     0301029403
0040000000000000002479018010009000900000345040100000007071797000000000003800000202501151644016508030900000000000200000000DAMIAN ROALCABA JOSIAS FERNAND     0301029403
0040000000000000001908465010009000900000346040100000006112946100000000002800000202501151408306508030900000000000200000000DAMIAN SANDOVAL GIULIANA JASMI     0301029403
0040000000000000001910373010009000900000489040100000006112946100000000000300000202501151409026508030900000000000200000000DAMIAN SANDOVAL GIULIANA JASMI     0301029403
0040000000000000002510828010009000900000346040100000006140854800000000002800000202501151651521409052500000000000200000000DANNA EMILY ROJAS FERNANDEZ        0301029403
0040000000000000002503701010009000900000489040100000006140854800000000000300000202501151650071409052500000000000200000000DANNA EMILY ROJAS FERNANDEZ        0301029403
004020131849K     20953260000010001000004360101               00000000005800000202501151503386759025000000000000200000000DAVILA                        DELGA0301029403
004020131849K     20937880000010001000003580101               00000000000300000202501151503126759025000000000000200000000DAVILA                        DELGA0301029403
004020185046C     04643960000010001000001350101               00000000000200000202501150822179182098700000000000200000000DE LA CRUZ                    BERNI0301029403
0040000000000000002237195010009000900000489040100000006029790300000000000300000202501151541592779023000000000000200000000DE LA CRUZ CARLOS DANIEL RUBI      0301029403
0040000000000000002236429010009000900000346040100000006029790300000000002800000202501151541462779023000000000000200000000DE LA CRUZ CARLOS DANIEL RUBI      0301029403
0040000000000000002245859010009000900000346040100000006025115800000000002800000202501151544211309023100000000000200000000DE LA CRUZ CESPEDES ROYER R        0301029403
004020199184D     25880910000010001000008440101               00000000001400000202501151711131033023100000000000200000000DE LA TORRE                   ESCAL0301029403
0040000000000000001204752010009000900000346040100000006126397100000000002800000202501151111055370029100000000000200000000DELGADO REGALADO STACY NAHOMY      0301029403
0040000000000000001209919010009000900000489040100000006126397100000000000300000202501151112095370029100000000000200000000DELGADO REGALADO STACY NAHOMY      0301029403
0040000000000000001054493010009000900000344040100000007095120400000000000100000202501151038431546030100000000000200000000DELGADO RODRIGUEZ DIEGO ALEJAN     0301029403
0040000000000000001992196010009000900000135040100000007341520700000000000200000202501151433293647024800000000000200000000DELGADO TORRES VILMA               0301029403
0040000000000000001987983010009000900000137040100000007341520700000000000500000202501151432163647024800000000000200000000DELGADO TORRES VILMA               0301029403
0040000000000000002057132010009000900000135040100000007684353000000000000200000202501151452413540023400000000000200000000DIAZ CORONADO DIANA MEDALIT        0301029403
0040000000000000002403811010009000900000489040100000006107097100000000000300000202501151625203540023400000000000200000000DIAZ MEJIA WALTER ANGEL            0301029403
0040000000000000002399255010009000900000346040100000006107097100000000002800000202501151624113540023400000000000200000000DIAZ MEJIA WALTER ANGEL            0301029403
0040000000000000001012667010009000900000489040100000007116972600000000000300000202501151029540426030100000000000200000000DIAZ PEREZ BAYRON ADRIAN           0301029403
0040000000000000001851146010009000900000114040100000007645832800000000000200000202501151351227371030100000000000200000000DIAZ SANDOVAL JUAN CARLOS          0301029403
0040000000000000000846750010009000900000489040100000007117901900000000000300000202501150954324119023100000000000200000000DIAZ SUAREZ DANIELA                0301029403
0040000000000000000845399010009000900000345040100000007117901900000000003800000202501150954154119023100000000000200000000DIAZ SUAREZ DANIELA                0301029403
0040000000000000000781201010009000900000003040100000007486357900000000005000010202501150940259194098700000000000200000000DORKA NARLID MENA RIMARACHIN       0301029403
0040000000000000000933629010009000900000489040100000006123064100000000000300000202501151013152850023000000000000200000000EDQUEN CALVAY ANYELA YAMALI        0301029403
0040000000000000000932652010009000900000345040100000006123064100000000003800000202501151013032850023000000000000200000000EDQUEN CALVAY ANYELA YAMALI        0301029403
004020190023H     21609290000010001000002060101               00000000003250000202501151521296764023100000000000200000000EFUS                          HERNA0301029403
004020190023H     21627310000010001000003580101               00000000000300000202501151521596764023100000000000200000000EFUS                          HERNA0301029403
0040000000000000000632470010009000900000344040100000007166975700000000000100000202501150906551546030100000000000200000000ELERA SECLEN JOSE AGUSTIN          0301029403
0040000000000000002267527010009000900000007040100000001741449300000000012000010202501151550016130023400000000000200000000ESCRIBANO TEJADA EDUARDO L.        0301029403
0040000000000000001302796010009000900000345040100000007114512800000000003800000202501151132221307023100000000000200000000ESPINOZA BALCAZAR SILVANA LIZ      0301029403
0040000000000000001305820010009000900000489040100000007114512800000000000300000202501151133031307023100000000000200000000ESPINOZA BALCAZAR SILVANA LIZ      0301029403
0040000000000000002271250010009000900000489040100000006117606800000000000300000202501151550591645024000000000000200000000ESPINOZA OROZCO ESTRELLA NOEMI     0301029403
0040000000000000002269823010009000900000345040100000006117606800000000003800000202501151550371645024000000000000200000000ESPINOZA OROZCO ESTRELLA NOEMI     0301029403
0040000000000000002272236010009000900000344040100000006117606800000000000100000202501151551151645024000000000000200000000ESPINOZA OROZCO ESTRELLA NOEMI     0301029403
0040000000000000000978367010009000900000357040100000003165955700000000000100000202501151022382561030100000000000200000000ESPIRITU RAMIREZ CESAR AUGUSTO     0301029403
0040000000000000000462785010009000900000845040100000007107152500000000001400010202501150821504119023100000000000200000000ESTELA BUSTAMANTE JOHN LENNON      0301029403
0040000000000000002089067010009000900000489040100000006050518500000000000300000202501151501526764023100000000000200000000ESTELA VARGAS JHEISON EYMARD       0301029403
0040000000000000002086671010009000900000346040100000006050518500000000002800000202501151501126764023100000000000200000000ESTELA VARGAS JHEISON EYMARD       0301029403
0040000000000000000810325010009000900000465040100000007247083800000000000100000202501150946402561030100000000000200000000FALLA ROJAS FRANK ALEXANDER        0301029403
0040000000000000000811795010009000900000465040100000007247083800000000000100000202501150946582561030100000000000200000000FALLA ROJAS FRANK ALEXANDER        0301029403
004020205256H     20771870000010001000009270101               00000000000350000202501151458311035023100000000000200000000FARFAN                        ZAPAT0301029403
0040000000000000001765036010009000900000346040100000006109826900000000002800000202501151325426508030900000000000200000000FARRO AN CAJUSOL JORDAN JAHIR      0301029403
0040000000000000001767044010009000900000489040100000006109826900000000000300000202501151326196508030900000000000200000000FARRO AN CAJUSOL JORDAN JAHIR      0301029403
0040000000000000001115181010009000900000489040100000006116002800000000000300000202501151051431546030100000000000200000000FERNANDEZ AGUILAR MICHELY DAYA     0301029403
0040000000000000001116734010009000900000346040100000006116002800000000002800000202501151052041546030100000000000200000000FERNANDEZ AGUILAR MICHELY DAYA     0301029403
0040000000000000000505572010009000900000346040100000006023734600000000002800000202501150834017371030100000000000200000000FERNANDEZ DIAZ JOSE RONALFER       0301029403
0040000000000000000506339010009000900000489040100000006023734600000000000300000202501150834137371030100000000000200000000FERNANDEZ DIAZ JOSE RONALFER       0301029403
004020200066F     22613970000010001000001350101               00000000000200000202501151548280821030100000000000200000000FERNANDEZ                     MUNDA0301029403
0040000000000000000594439010009000900000346040100000006113052300000000002800000202501150857324120023100000000000200000000FERNANDEZ SOTO EIMY DANIELA        0301029403
0040000000000000000595153010009000900000489040100000006113052300000000000300000202501150857434120023100000000000200000000FERNANDEZ SOTO EIMY DANIELA        0301029403
0040000000000000000743710010009000900000346040100000006125611900000000002800000202501150932126753030100000000000200000000FIESTAS CENTURION JOSUE JOSE       0301029403
0040000000000000000744726010009000900000489040100000006125611900000000000300000202501150932266753030100000000000200000000FIESTAS CENTURION JOSUE JOSE       0301029403
0040000000000000000632235010009000900000344040100000006063850800000000000100000202501150906522561030100000000000200000000FIESTAS PEREZ EDGAR JOSE           0301029403
0040000000000000002322694010009000900000050040100000007766757800000000003250000202501151604492561030100000000000200000000FLORES CHAPO AN MARTIN ALEXIS      0301029403
0040000000000000002326774010009000900000857040100000007766757800000000000300000202501151605522561030100000000000200000000FLORES CHAPO AN MARTIN ALEXIS      0301029403
0040000000000000002571151010009000900000345040100000007095013400000000003800000202501151706466760025000000000000200000000FLORES FERNANDEZ CIELO STHEFAN     0301029403
0040000000000000002571159010009000900000489040100000007095246000000000000300000202501151706466759025000000000000200000000FLORES FERNANDEZ YAJAYRA NICOL     0301029403
0040000000000000002569619010009000900000345040100000007095246000000000003800000202501151706226759025000000000000200000000FLORES FERNANDEZ YAJAYRA NICOL     0301029403
0040000000000000001556091010009000900000233040100000007428625500000000000100000202501151230156753030100000000000200000000FLORES GUZMAN JAHAYRA JANINA       0301029403
0040000000000000001151605010009000900000489040100000006113047800000000000300000202501151059424120023100000000000200000000FLORES VEGA YADIRA MARI ELENA      0301029403
0040000000000000001150553010009000900000346040100000006113047800000000002800000202501151059284120023100000000000200000000FLORES VEGA YADIRA MARI ELENA      0301029403
0040000000000000000829674010009000900000489040100000007118883300000000000300000202501150950522854023000000000000200000000FLORES VIDAL RODRIGO DEL PIERO     0301029403
0040000000000000000825716010009000900000345040100000007118883300000000003800000202501150950002854023000000000000200000000FLORES VIDAL RODRIGO DEL PIERO     0301029403
0040000000000000002582216010009000900000489040100000006054121000000000000300000202501151709413710023100000000000200000000FONSECA MONTENEGRO KAREN DALIA     0301029403
0040000000000000001776198010009000900000489040100000006111000000000000000300000202501151328569187098700000000000200000000FRANCIS STEVEN GUEVARA BECERRA     0301029403
0040000000000000001717494010009000900000345040100000006111000000000000003800000202501151312029173098700000000000200000000FRANCIS STEVEN GUEVARA BECERRA     0301029403
0040000000000000000816039010009000900000345040100000007616741600000000003800000202501150947534996023400000000000200000000FUENTES BAUTISTA ANGIE DE JESU     0301029403
0040000000000000000817329010009000900000489040100000007616741600000000000300000202501150948094996023400000000000200000000FUENTES BAUTISTA ANGIE DE JESU     0301029403
0040000000000000000498740010009000900000894040100000007307579200000000002500000202501150832103710023100000000000200000000FUENTES SALAZAR JORDAN STEFANO     0301029403
0040000000000000001828485010009000900000489040100000007073366200000000000300000202501151344377371030100000000000200000000GALLARDO MU OZ VALENTINA ANTHO     0301029403
0040000000000000001827841010009000900000346040100000007073366200000000002800000202501151344267371030100000000000200000000GALLARDO MU OZ VALENTINA ANTHO     0301029403
0040000000000000001953252010009000900000489040100000007529418100000000000300000202501151421462850023000000000000200000000GALLARDO NAVARRO XIOMARA LISBE     0301029403
0040000000000000001952304010009000900000346040100000007529418100000000002800000202501151421302850023000000000000200000000GALLARDO NAVARRO XIOMARA LISBE     0301029403
0040000000000000001953873010009000900000344040100000007529418100000000000100000202501151421582850023000000000000200000000GALLARDO NAVARRO XIOMARA LISBE     0301029403
0040000000000000001488248010009000900000357040100000004766263300000000000100000202501151213560821030100000000000200000000GAMARRA LOZADA ARLIN CAROLINA      0301029403
0040000000000000001487248010009000900000357040100000004766263300000000000100000202501151213410821030100000000000200000000GAMARRA LOZADA ARLIN CAROLINA      0301029403
0040000000000000000443447010009000900000346040100000006028397900000000002800000202501150816154119023100000000000200000000GAONA ALTAMIRANO ANITA JHESENI     0301029403
0040000000000000000444514010009000900000489040100000006028397900000000000300000202501150816354119023100000000000200000000GAONA ALTAMIRANO ANITA JHESENI     0301029403
0040000000000000000816071010009000900000489040100000006115999800000000000300000202501150947536753030100000000000200000000GAONA LOPEZ SHEIDY DEL ROCIO       0301029403
0040000000000000000733652010009000900000436040100000007513359700000000005800000202501150929562933000600000000000200000000GARCIA MIMBELA MARIA LISBETH       0301029403
0040000000000000000731167010009000900000358040100000007513359700000000000300000202501150929222933000600000000000200000000GARCIA MIMBELA MARIA LISBETH       0301029403
0040000000000000001033132010009000900000896040100000007389879400000000000100000202501151034131604030200000000000200000000GARCIA VIDAL CARLOS MILANDRO       0301029403
0040000000000000001426119010009000900000580040100000004296815200000000000150000202501151159367371030100000000000200000000GIL BUSTAMANTE JOSE MIGUEL         0301029403
0040000000000000002227938010009000900000923040100000000349895700000000002000010202501151539290736068100000000000200000000GIRON PE A JHONNY                  0301029403
0040000000000000002164363010009000900000879040100000007394755900000000001000000202501151522261217026100000000000200000000GISSELLY DEL PIL TRELLES ASMAT     0301029403
0040000000000000001537816010009000900000925040100000001744009500000000000200000202501151225486753030100000000000200000000GOMEZ QUISPE PASCUAL               0301029403
0040000000000000002394892010009000900000346040100000007096173400000000002800000202501151623074207025000000000000200000000GONZALES BALLENA OSCAR FABIAN      0301029403
0040000000000000002395540010009000900000489040100000007096173400000000000300000202501151623174207025000000000000200000000GONZALES BALLENA OSCAR FABIAN      0301029403
0040000000000000002396391010009000900000344040100000007096173400000000000100000202501151623304207025000000000000200000000GONZALES BALLENA OSCAR FABIAN      0301029403
0040000000000000002420917010009000900000346040100000006016706800000000002800000202501151629366753030100000000000200000000GONZALES SANCHEZ WENDY KATHERI     0301029403
0040000000000000002421830010009000900000489040100000006016706800000000000300000202501151629496753030100000000000200000000GONZALES SANCHEZ WENDY KATHERI     0301029403
0040000000000000001684255010009000900000489040100000006106227100000000000300000202501151302562968081200000000000200000000GUANILO VENTURA MARIEL ALESSAN     0301029403
0040000000000000001686211010009000900000344040100000006106227100000000000100000202501151303292968081200000000000200000000GUANILO VENTURA MARIEL ALESSAN     0301029403
0040000000000000001683048010009000900000346040100000006106227100000000002800000202501151302372968081200000000000200000000GUANILO VENTURA MARIEL ALESSAN     0301029403
0040000000000000002245198010009000900000292040100000004695366500000000000500000202501151544103537063400000000000200000000GUERRERO  LABAN  ARACELI           0301029403
004020104029F     23276630000010001000002730101               00000000000100000202501151606052852023000000000000200000000GUERRERO                      FLORE0301029403
0040000000000000001509778010009000900000357040100000007589052400000000000100000202501151219067372030100000000000200000000GUERRERO MILIAN MARIA ROXANA       0301029403
004020161977G     25196180000010001000001720101               00000000000100000202501151654037371030100000000000200000000GUEVARA                       FERNA0301029403
0040000000000000001566903010009000900000903040100000004310771500000000000500000202501151232522850023000000000000200000000GUEVARA GARCIA JUAN KAROL          0301029403
0040000000000000002517301010009000900000898040100000004710741000000000000200000202501151653284178028200000000000200000000GUEVARA VASQUEZ LOIDA              0301029403
0040000000000000002522415010009000900000896040100000004710741000000000000100000202501151654454178028200000000000200000000GUEVARA VASQUEZ LOIDA              0301029403
0040000000000000002521235010009000900000896040100000004710741000000000000100000202501151654274178028200000000000200000000GUEVARA VASQUEZ LOIDA              0301029403
0040000000000000002520219010009000900000896040100000004710741000000000000100000202501151654124178028200000000000200000000GUEVARA VASQUEZ LOIDA              0301029403
0040000000000000002523537010009000900000896040100000004710741000000000000100000202501151655014178028200000000000200000000GUEVARA VASQUEZ LOIDA              0301029403
0040000000000000001873207010009000900000489040100000006133445900000000000300000202501151358000426030100000000000200000000GUTIERREZ OLIVA AXEL ADRIANO       0301029403
0040000000000000001870445010009000900000345040100000006133445900000000003800000202501151357090426030100000000000200000000GUTIERREZ OLIVA AXEL ADRIANO       0301029403
0040000000000000002517222010009000900000489040100000007095903900000000000300000202501151653273540023400000000000200000000GUTIERREZ REGALADO MARTIN ADOL     0301029403
0040000000000000002514544010009000900000345040100000007095903900000000003800000202501151652483540023400000000000200000000GUTIERREZ REGALADO MARTIN ADOL     0301029403
0040000000000000000743143010009000900000489040100000006130096600000000000300000202501150932051546030100000000000200000000GUTIERREZ TIQUILLAHUANCA ERICK     0301029403
0040000000000000000744494010009000900000346040100000006130096600000000002800000202501150932231546030100000000000200000000GUTIERREZ TIQUILLAHUANCA ERICK     0301029403
0040000000000000001302089010009000900000346040100000006115734300000000002800000202501151132127372030100000000000200000000GUZMAN LLONTOP SARA ABIGAIL        0301029403
0040000000000000001303800010009000900000489040100000006115734300000000000300000202501151132357372030100000000000200000000GUZMAN LLONTOP SARA ABIGAIL        0301029403
0040000000000000002075199010009000900000346040100000007115989200000000002800000202501151457562467024800000000000200000000GUZMAN REA O CIELO ALEJANDRA       0301029403
0040000000000000002076441010009000900000489040100000007115989200000000000300000202501151458182467024800000000000200000000GUZMAN REA O CIELO ALEJANDRA       0301029403
004020112301C     25211910000010001000001720101               00000000000100000202501151654267371030100000000000200000000HEREDIA                       ALTAM0301029403
0040000000000000001128259010009000900000489040100000006106540700000000000300000202501151054341604030200000000000200000000HERNA CAJUSOL JAIRO JAMPIER        0301029403
0040000000000000001126826010009000900000345040100000006106540700000000003800000202501151054141604030200000000000200000000HERNA CAJUSOL JAIRO JAMPIER        0301029403
0040000000000000001839778010009000900000345040100000006051135900000000003800000202501151348011487023600000000000200000000HEYDY NAOMI GORDILLO LUMBRES       0301029403
0040000000000000001840520010009000900000489040100000006051135900000000000300000202501151348141487023600000000000200000000HEYDY NAOMI GORDILLO LUMBRES       0301029403
0040000000000000001565612010009000900000489040100000007095791400000000000300000202501151232331307023100000000000200000000HORNA BULNES ADRIANA TAMARA        0301029403
0040000000000000001540398010009000900000345040100000007095791400000000003800000202501151226241307023100000000000200000000HORNA BULNES ADRIANA TAMARA        0301029403
0040000000000000002206328010009000900000345040100000006122885500000000003800000202501151533467393027100000000000200000000HOYOS BARBOZA KAYLHA               0301029403
0040000000000000002603765010009000900000346040100000006051381100000000002800000202501151715251033023100000000000200000000HOYOS TARRILLO YANETT MARYCIEL     0301029403
0040000000000000000431159010009000900000489040100000007096722300000000000300000202501150812403647024800000000000200000000HUAMAN CARRASCO KAREN PATRICIA     0301029403
0040000000000000000430501010009000900000346040100000007096722300000000002800000202501150812283647024800000000000200000000HUAMAN CARRASCO KAREN PATRICIA     0301029403
0040000000000000001494181010009000900000344040100000007136453600000000000100000202501151215220426030100000000000200000000HUAMAN CARRERO JIMMY ELVER         0301029403
0040000000000000001225003010009000900000346040100000006025694300000000002800000202501151115281636024300000000000200000000HUAMAN CUZQUE MARIA FERNANDA       0301029403
0040000000000000001227377010009000900000489040100000006025694300000000000300000202501151115591636024300000000000200000000HUAMAN CUZQUE MARIA FERNANDA       0301029403
0040000000000000002519794010009000900000489040100000007718633700000000000300000202501151654064118023100000000000200000000HUANILA VELASCO MILENA ESLY        0301029403
0040000000000000002521555010009000900000345040100000007718633700000000003800000202501151654324118023100000000000200000000HUANILA VELASCO MILENA ESLY        0301029403
0040000000000000001195442010009000900000489040100000007136981100000000000300000202501151109063710023100000000000200000000HUAYNATES MIRES LEONARDO ALEJA     0301029403
0040000000000000001196691010009000900000344040100000007136981100000000000100000202501151109233710023100000000000200000000HUAYNATES MIRES LEONARDO ALEJA     0301029403
0040000000000000001194618010009000900000345040100000007136981100000000003800000202501151108563710023100000000000200000000HUAYNATES MIRES LEONARDO ALEJA     0301029403
0040000000000000002057494010009000900000489040100000006107398000000000000300000202501151452481309023100000000000200000000JACINTO FIESTAS CIELO JENYTZA      0301029403
0040000000000000002053706010009000900000345040100000006107398000000000003800000202501151451441309023100000000000200000000JACINTO FIESTAS CIELO JENYTZA      0301029403
0040000000000000001648174010009000900000344040100000006133725100000000000100000202501151253246753030100000000000200000000JIMENEZ CIEZA PATRICIA MARICIE     0301029403
0040000000000000002069332010009000900000346040100000007259721900000000002800000202501151456152853023000000000000200000000JIMENEZ TABOADA ROCELIN ANDREA     0301029403
0040000000000000002071344010009000900000489040100000007259721900000000000300000202501151456492853023000000000000200000000JIMENEZ TABOADA ROCELIN ANDREA     0301029403
0040000000000000001519345010009000900000489040100000006060534500000000000300000202501151221261708023300000000000200000000JORDAN REQUE ARIANA DEL MILAGR     0301029403
0040000000000000002023739010009000900000345040100000006060534500000000003800000202501151442451707023300000000000200000000JORDAN REQUE ARIANA DEL MILAGR     0301029403
0040000000000000001028027010009000900000920040100000002704622100000000003520000202501151033086725076300000000000200000000JOSE FERNANDO GONZALES VIGO        0301029403
0040000000000000001024504010009000900000920040100000002704622100000000003520000202501151032236725076300000000000200000000JOSE FERNANDO GONZALES VIGO        0301029403
0040000000000000001371765010009000900000285040100000007248627600000000000100000202501151147329173098700000000000200000000JUAN EDWARD HERNANDEZ HERNANDE     0301029403
0040000000000000002100409010009000900000345040100000006126053500000000003800000202501151505011414023400000000000200000000JUAREZ MONJE XIOMARA THAIS         0301029403
0040000000000000002102450010009000900000489040100000006126053500000000000300000202501151505371414023400000000000200000000JUAREZ MONJE XIOMARA THAIS         0301029403
004020150143B     11211990000010001000003580101               00000000000300000202501151053017371030100000000000200000000JULCA                         CHVE0301029403
004020150143B     11237430000010001000004360101               00000000005800000202501151053337371030100000000000200000000JULCA                         CHVE0301029403
0040000000000000001610250010009000900000012040100000001672250300000000002500000202501151243444204025000000000000200000000LA TORRE ALIAGA ROCIO DEL ALBA     0301029403
0040000000000000002126070010009000900000489040100000006118534900000000000300000202501151512071546030100000000000200000000LALANGUI MONTENEGRO DIANA FIOR     0301029403
0040000000000000002127615010009000900000346040100000006118534900000000002800000202501151512331546030100000000000200000000LALANGUI MONTENEGRO DIANA FIOR     0301029403
0040000000000000001198240010009000900000346040100000006123739700000000002800000202501151109432561030100000000000200000000LARREA ARRIVASPLATA DEIVY ANDE     0301029403
0040000000000000001204532010009000900000489040100000006123739700000000000300000202501151111022561030100000000000200000000LARREA ARRIVASPLATA DEIVY ANDE     0301029403
0040000000000000000734995010009000900000345040100000007118660600000000003800000202501150930135371029100000000000200000000LEIVA TIRADO LUZ ESTELA            0301029403
0040000000000000000730538010009000900000489040100000007118660600000000000300000202501150929145371029100000000000200000000LEIVA TIRADO LUZ ESTELA            0301029403
0040000000000000002598432010009000900000344040100000007096262900000000000100000202501151713592463024800000000000200000000LEON ARAMBULO EMELYN WALESKA       0301029403
0040000000000000002386675010009000900000489040100000006112783400000000000300000202501151621005370029100000000000200000000LEON SUAREZ LADY ROSMERY           0301029403
0040000000000000002388414010009000900000344040100000006112783400000000000100000202501151621275370029100000000000200000000LEON SUAREZ LADY ROSMERY           0301029403
0040000000000000002384589010009000900000346040100000006112783400000000002800000202501151620275370029100000000000200000000LEON SUAREZ LADY ROSMERY           0301029403
0040000000000000002251883010009000900000489040100000006123030600000000000300000202501151546001035023100000000000200000000LEYVA ALARCON YORT ADRIAN          0301029403
0040000000000000002250637010009000900000345040100000006123030600000000003800000202501151545391035023100000000000200000000LEYVA ALARCON YORT ADRIAN          0301029403
0040000000000000000664975010009000900000014040100000001673831200000000010000010202501150914353342052900000000000200000000LLAJA LLONTOP WALTER JULIAN        0301029403
0040000000000000001728559010009000900000008040100000001673831200000000000300000202501151315083342052900000000000200000000LLAJA LLONTOP WALTER JULIAN        0301029403
0040000000000000001040415010009000900000357040100000002672243000000000000100000202501151035461546030100000000000200000000LLANOS BARDALES JAVIER             0301029403
0040000000000000002028744010009000900000346040100000006128407500000000002800000202501151444172467024800000000000200000000LLANOS CORONEL KIRA SHEKINAH       0301029403
0040000000000000002029755010009000900000489040100000006128407500000000000300000202501151444342467024800000000000200000000LLANOS CORONEL KIRA SHEKINAH       0301029403
0040000000000000002238976010009000900000345040100000006129768700000000003800000202501151542291546030100000000000200000000LLAUCE CHAVEZ ALEJANDRO            0301029403
0040000000000000002236782010009000900000489040100000006129768700000000000300000202501151541521546030100000000000200000000LLAUCE CHAVEZ ALEJANDRO            0301029403
0040000000000000000967884010009000900000489040100000007632735500000000000300000202501151020256508030900000000000200000000LLAUCE MONTALVAN LISBET PAMELA     0301029403
0040000000000000000965274010009000900000345040100000007632735500000000003800000202501151019536508030900000000000200000000LLAUCE MONTALVAN LISBET PAMELA     0301029403
0040000000000000000955365010009000900000345040100000007096475100000000003800000202501151017492463024800000000000200000000LLENQUE LLENQUE MARIACIELO ABI     0301029403
0040000000000000000951536010009000900000345040100000007096476600000000003800000202501151017002463024800000000000200000000LLENQUE LLENQUE MARIAGRACIA  A     0301029403
0040000000000000001774100010009000900000346040100000006112944700000000002800000202501151328202561030100000000000200000000LLONTOP BANCES MARIA ESTHER        0301029403
0040000000000000001775409010009000900000489040100000006112944700000000000300000202501151328422561030100000000000200000000LLONTOP BANCES MARIA ESTHER        0301029403
0040000000000000001468959010009000900000346040100000006129755300000000002800000202501151209221729030400000000000200000000LLONTOP CORONADO JEAMPIER          0301029403
0040000000000000001470724010009000900000489040100000006129755300000000000300000202501151209471729030400000000000200000000LLONTOP CORONADO JEAMPIER          0301029403
004020185554I     23000790000010001000002060101               00000000003250000202501151558501487023600000000000200000000LLONTOP                       GUZMA0301029403
004020185554I     22979680000010001000003580101               00000000000300000202501151558131487023600000000000200000000LLONTOP                       GUZMA0301029403
0040000000000000001368499010009000900000346040100000006100558400000000002800000202501151146506508030900000000000200000000LLONTOP SANDOVAL LEYDI LISETH      0301029403
0040000000000000000453212010009000900000345040100000006117609300000000003800000202501150819036760025000000000000200000000LLONTOP SANTOS KYARA MARILU        0301029403
0040000000000000000454738010009000900000489040100000006117609300000000000300000202501150819306760025000000000000200000000LLONTOP SANTOS KYARA MARILU        0301029403
0040000000000000001060261010009000900000344040100000007168721800000000000100000202501151039571646024000000000000200000000LLUEN GRANDA MATTHEW LEONARDO      0301029403
0040000000000000001058945010009000900000489040100000007168721800000000000300000202501151039401646024000000000000200000000LLUEN GRANDA MATTHEW LEONARDO      0301029403
0040000000000000001055476010009000900000345040100000007168721800000000003800000202501151038561646024000000000000200000000LLUEN GRANDA MATTHEW LEONARDO      0301029403
0040000000000000001027896010009000900000489040100000006116007600000000000300000202501151033061546030100000000000200000000LLUEN MARCELO NAYELLI YARUMI       0301029403
0040000000000000001028610010009000900000346040100000006116007600000000002800000202501151033161546030100000000000200000000LLUEN MARCELO NAYELLI YARUMI       0301029403
0040000000000000001526622010009000900000345040100000007096459700000000003800000202501151223091873030100000000000200000000LLUNCOR CAMPOS TATIANA MONSERR     0301029403
0040000000000000001528723010009000900000489040100000007096459700000000000300000202501151223381873030100000000000200000000LLUNCOR CAMPOS TATIANA MONSERR     0301029403
0040000000000000002437029010009000900000489040100000006130115300000000000300000202501151633357371030100000000000200000000LOAIZA PAREDES DANHIRA JAHAIRA     0301029403
0040000000000000002436311010009000900000345040100000006130115300000000003800000202501151633257371030100000000000200000000LOAIZA PAREDES DANHIRA JAHAIRA     0301029403
0040000000000000002225889010009000900000206040100000007211584800000000003250000202501151538576434024800000000000200000000LOCONI YAHUANA MARIA ROSA          0301029403
0040000000000000002226810010009000900000358040100000007211584800000000000300000202501151539126434024800000000000200000000LOCONI YAHUANA MARIA ROSA          0301029403
004020200068I     22595360000010001000001350101               00000000000200000202501151547580821030100000000000200000000LOPEZ                         QUISP0301029403
0040000000000000001020502010009000900000346040100000006126409900000000002800000202501151031322850023000000000000200000000LOZANO ALARCON MADALEYNE           0301029403
0040000000000000001023358010009000900000344040100000006126409900000000000100000202501151032092850023000000000000200000000LOZANO ALARCON MADALEYNE           0301029403
0040000000000000001021737010009000900000489040100000006126409900000000000300000202501151031482850023000000000000200000000LOZANO ALARCON MADALEYNE           0301029403
0040000000000000001632151010009000900000346040100000006054560700000000002800000202501151249151546030100000000000200000000LUCERO QUISPE WILMER HENDERSON     0301029403
0040000000000000001629530010009000900000489040100000006054560700000000000300000202501151248321546030100000000000200000000LUCERO QUISPE WILMER HENDERSON     0301029403
0040000000000000000890202010009000900000012040100000002301290400000000002500000202501151003579195098700000000000200000000LUIS ALBERTO NU EZ ALEJOS          0301029403
0040000000000000001030742010009000900000345040100000007096432100000000003800000202501151033439175098700000000000200000000LUIS JOSHUA GABRIEL CALDERON C     0301029403
0040000000000000001045415010009000900000344040100000007096432100000000000100000202501151036499168098700000000000200000000LUIS JOSHUA GABRIEL CALDERON C     0301029403
0040000000000000001008492010009000900000489040100000007096432100000000000300000202501151029019190098700000000000200000000LUIS JOSHUA GABRIEL CALDERON C     0301029403
0040000000000000002154255010009000900000879040100000004620082700000000001000000202501151519421217026100000000000200000000LUZ DANI MARTINEZ NEYRA            0301029403
0040000000000000002010468010009000900000345040100000007070709000000000003800000202501151438461033023100000000000200000000MALDONADO TARRILLO JUAN ANGEL      0301029403
0040000000000000002011302010009000900000489040100000007070709000000000000300000202501151439001033023100000000000200000000MALDONADO TARRILLO JUAN ANGEL      0301029403
0040000000000000002338494010009000900000489040100000007168582700000000000300000202501151608483449025300000000000200000000MALPICA PARI#AS ITALO ANDERSON     0301029403
0040000000000000002336983010009000900000345040100000007168582700000000003800000202501151608253449025300000000000200000000MALPICA PARI#AS ITALO ANDERSON     0301029403
0040000000000000002134340010009000900000346040100000006229121500000000002800000202501151514211033023100000000000200000000MANOSALVA DAVILA KIARA VANESSA     0301029403
0040000000000000001413679010009000900000346040100000006116009900000000002800000202501151156487371030100000000000200000000MARTINEZ MONTENEGRO ALONDRA MA     0301029403
0040000000000000001414506010009000900000489040100000006116009900000000000300000202501151157007371030100000000000200000000MARTINEZ MONTENEGRO ALONDRA MA     0301029403
0040000000000000001469601010009000900000896040100000004333461700000000000100000202501151209310821030100000000000200000000MARTINEZ ROJAS EBER                0301029403
0040000000000000001468784010009000900000896040100000004333461700000000000100000202501151209190821030100000000000200000000MARTINEZ ROJAS EBER                0301029403
0040000000000000001471248010009000900000896040100000004333461700000000000100000202501151209540821030100000000000200000000MARTINEZ ROJAS EBER                0301029403
0040000000000000001466453010009000900000898040100000004333461700000000000200000202501151208470821030100000000000200000000MARTINEZ ROJAS EBER                0301029403
0040000000000000001470415010009000900000896040100000004333461700000000000100000202501151209420821030100000000000200000000MARTINEZ ROJAS EBER                0301029403
004020185586H     14796340000010001000002730101               00000000000100000202501151211510821030100000000000200000000MASLUCAN                      MONTE0301029403
004020185586H     14777340000010001000002650101               00000000000050000202501151211240821030100000000000200000000MASLUCAN                      MONTE0301029403
004020180256J     19595250000010001000007150101               00000000007700010202501151423360321023100000000000200000000MAYANGA                       HUERT0301029403
004020180256J     19621450000010001000007220101               00000000000100000202501151424230321023100000000000200000000MAYANGA                       HUERT0301029403
0040000000000000000792880010009000900000489040100000006117602900000000000300000202501150943044204025000000000000200000000MECHAN SANDOVAL VICTOR MANUEL      0301029403
0040000000000000000791532010009000900000345040100000006117602900000000003800000202501150942484204025000000000000200000000MECHAN SANDOVAL VICTOR MANUEL      0301029403
004020132022B     06159100000010001000004630101               00000000000050000202501150902546130023400000000000200000000MEDINA                        ARRIB0301029403
0040000000000000002393174010009000900000489040100000007096355500000000000300000202501151622412779023000000000000200000000MEDINA GOMEZ VIVIANA BRIGITTE      0301029403
0040000000000000002392437010009000900000346040100000007096355500000000002800000202501151622292779023000000000000200000000MEDINA GOMEZ VIVIANA BRIGITTE      0301029403
004020190309I     07534420000010001000007220101               00000000000100000202501150934199181098700000000000200000000MEDINA                        RODRI0301029403
0040000000000000002282771010009000900000844040100000001679063000000000001400000202501151554022467024800000000000200000000MEJIA FLORES NELIDA                0301029403
0040000000000000001754558010009000900000857040100000007403731200000000000300000202501151322412561030100000000000200000000MENDEZ LOMBARDI JESENIA JESSIC     0301029403
0040000000000000001128368010009000900000345040100000006135722600000000003800000202501151054356753030100000000000200000000MENDEZ PEBE ANA CECILIA            0301029403
0040000000000000001129155010009000900000489040100000006135722600000000000300000202501151054456753030100000000000200000000MENDEZ PEBE ANA CECILIA            0301029403
0040000000000000001101566010009000900000489040100000006184913400000000000300000202501151048501546030100000000000200000000MENDOZA ARRASCO AZUCENA DAYANA     0301029403
0040000000000000001103463010009000900000345040100000006184913400000000003800000202501151049141546030100000000000200000000MENDOZA ARRASCO AZUCENA DAYANA     0301029403
0040000000000000001464657010009000900000489040100000006060531300000000000300000202501151208236453023900000000000200000000MENDOZA NECIOSUP ARACELY NAOMI     0301029403
0040000000000000001473188010009000900000344040100000006060531300000000000100000202501151210216453023900000000000200000000MENDOZA NECIOSUP ARACELY NAOMI     0301029403
0040000000000000001462198010009000900000345040100000006060531300000000003800000202501151207496453023900000000000200000000MENDOZA NECIOSUP ARACELY NAOMI     0301029403
0040000000000000001614567010009000900000357040100000008047394100000000000100000202501151244496753030100000000000200000000MENDOZA SOTO EDDY NERY             0301029403
0040000000000000001705877010009000900000925040100000001808723300000000000200000202501151308501546030100000000000200000000MERCADO BOYD LILIANA               0301029403
0040000000000000000814756010009000900000346040100000006058238900000000002800000202501150947370426030100000000000200000000MESTANZA VENTURA LUIS ALDAYR       0301029403
0040000000000000000815983010009000900000489040100000006058238900000000000300000202501150947520426030100000000000200000000MESTANZA VENTURA LUIS ALDAYR       0301029403
0040000000000000002278155010009000900000489040100000006060085900000000000300000202501151552472123029500000000000200000000MILIAN HUAMAN ABIGAIL DEL ROCI     0301029403
0040000000000000002030661010009000900000345040100000006060085900000000003800000202501151444492123029500000000000200000000MILIAN HUAMAN ABIGAIL DEL ROCI     0301029403
0040000000000000000830907010009000900000489040100000006055493200000000000300000202501150951081707023300000000000200000000MILLONES ANGELES GRECIA NAYELL     0301029403
0040000000000000000831983010009000900000344040100000006055493200000000000100000202501150951231707023300000000000200000000MILLONES ANGELES GRECIA NAYELL     0301029403
0040000000000000000829963010009000900000345040100000006055493200000000003800000202501150950561707023300000000000200000000MILLONES ANGELES GRECIA NAYELL     0301029403
004020174541H     14200540000010001000000500101               00000000003250000202501151158167371030100000000000200000000MIO                           MONJA0301029403
0040000000000000001498636010009000900000346040100000007096598100000000002800000202501151216276753030100000000000200000000MONJA TAVARA LEONEL EDGARDO        0301029403
0040000000000000001499401010009000900000489040100000007096598100000000000300000202501151216376753030100000000000200000000MONJA TAVARA LEONEL EDGARDO        0301029403
0040000000000000001401510010009000900000489040100000006112585900000000000300000202501151154054120023100000000000200000000MONTALVAN CONDE JUAN JOSE          0301029403
0040000000000000001398859010009000900000345040100000006112585900000000003800000202501151153304120023100000000000200000000MONTALVAN CONDE JUAN JOSE          0301029403
0040000000000000001088182010009000900000346040100000006103089600000000002800000202501151045561546030100000000000200000000MONTALVAN PALACIOS ESTEBAN LUI     0301029403
0040000000000000001085871010009000900000489040100000006103089600000000000300000202501151045271546030100000000000200000000MONTALVAN PALACIOS ESTEBAN LUI     0301029403
0040000000000000001405743010009000900000489040100000007117164000000000000300000202501151155022850023000000000000200000000MONTALVO VARGAS MARICIELO          0301029403
0040000000000000002139898010009000900000489040100000006083529700000000000300000202501151515544204025000000000000200000000MONTENEGRO LOZANO CESIA            0301029403
0040000000000000002137708010009000900000345040100000006083529700000000003800000202501151515164204025000000000000200000000MONTENEGRO LOZANO CESIA            0301029403
0040000000000000001593382010009000900000345040100000007074231600000000003800000202501151239223608030500000000000200000000MOSTACERO CARBAJAL VICTOR MIGU     0301029403
0040000000000000001594126010009000900000489040100000007074231600000000000300000202501151239353608030500000000000200000000MOSTACERO CARBAJAL VICTOR MIGU     0301029403
0040000000000000001624926010009000900000489040100000006053338400000000000300000202501151247244204025000000000000200000000MOSTE ROJAS PATRICIA ROSMERY       0301029403
0040000000000000001626909010009000900000346040100000006053338400000000002800000202501151247534204025000000000000200000000MOSTE ROJAS PATRICIA ROSMERY       0301029403
0040000000000000002605726010009000900000489040100000006034950100000000000300000202501151715576764023100000000000200000000MU OZ LOPEZ MICZY JHUNIT           0301029403
0040000000000000002603697010009000900000345040100000006034950100000000003800000202501151715246764023100000000000200000000MU OZ LOPEZ MICZY JHUNIT           0301029403
0040000000000000000520426010009000900000464040100000007292683300000000000720010202501150838040821030100000000000200000000MURO ALDANA WILLIAM FLORENCIO      0301029403
0040000000000000000613575010009000900000345040100000006135722300000000003800000202501150902201546030100000000000200000000MUSAYON VENTURA ANTHONY ALEJAN     0301029403
0040000000000000000610094010009000900000489040100000006135722300000000000300000202501150901281546030100000000000200000000MUSAYON VENTURA ANTHONY ALEJAN     0301029403
004020151552C     09087490000010001000003220101               00000000000100000202501151007542850023000000000000200000000NAVARRO                       DAVIL0301029403
0040000000000000002156596010009000900000879040100000004367978500000000001000000202501151520201217026100000000000200000000NAZLY NIJATH PEREZ SANCHEZ         0301029403
0040000000000000000755892010009000900000345040100000007073393900000000003800000202501150934534204025000000000000200000000NECIOSUP LOPEZ ANGEL DAVID         0301029403
0040000000000000000757474010009000900000489040100000007073393900000000000300000202501150935134204025000000000000200000000NECIOSUP LOPEZ ANGEL DAVID         0301029403
0040000000000000001324781010009000900000489040100000006114310900000000000300000202501151137131707023300000000000200000000NECIOSUP VELASQUEZ KATHERINE X     0301029403
0040000000000000001325774010009000900000344040100000006114310900000000000100000202501151137261707023300000000000200000000NECIOSUP VELASQUEZ KATHERINE X     0301029403
0040000000000000001320310010009000900000345040100000006114310900000000003800000202501151136151707023300000000000200000000NECIOSUP VELASQUEZ KATHERINE X     0301029403
0040000000000000002336482010009000900000489040100000007115956100000000000300000202501151608174207025000000000000200000000NEIRA GARCIA RICHARD DAIRON        0301029403
0040000000000000002338270010009000900000345040100000007115956100000000003800000202501151608444207025000000000000200000000NEIRA GARCIA RICHARD DAIRON        0301029403
0040000000000000002339175010009000900000344040100000007115956100000000000100000202501151608584207025000000000000200000000NEIRA GARCIA RICHARD DAIRON        0301029403
0040000000000000002292156010009000900000927040100000007228180000000000000350000202501151556340321023100000000000200000000NEYRA QUESQUEN ANGHELO JEANPIE     0301029403
0040000000000000002291344010009000900000844040100000007228180000000000001400000202501151556200321023100000000000200000000NEYRA QUESQUEN ANGHELO JEANPIE     0301029403
0040000000000000001774712010009000900000357040100000004316980900000000000100000202501151328317371030100000000000200000000NU EZ DELGADO ALVARO               0301029403
0040000000000000002076207010009000900000346040100000007118720800000000002800000202501151458142852023000000000000200000000NU#EZ CERNA RUBI STEFANY           0301029403
0040000000000000002076795010009000900000489040100000007118720800000000000300000202501151458242852023000000000000200000000NU#EZ CERNA RUBI STEFANY           0301029403
0040000000000000001499651010009000900000273040100000007293299500000000000100000202501151216413450025300000000000200000000OCHOA SANCHEZ EVELYN PIERINA       0301029403
0040000000000000001502709010009000900000265040100000007293299500000000000050000202501151217243450025300000000000200000000OCHOA SANCHEZ EVELYN PIERINA       0301029403
0040000000000000001583616010009000900000346040100000007073498100000000002800000202501151236570321023100000000000200000000ODAR BARBARAN JOSE RAUL ARON       0301029403
0040000000000000001579163010009000900000489040100000007073498100000000000300000202501151235530321023100000000000200000000ODAR BARBARAN JOSE RAUL ARON       0301029403
0040000000000000000946203010009000900000489040100000006108795200000000000300000202501151015545662030600000000000200000000ODAR MIO EBELI                     0301029403
0040000000000000000945285010009000900000346040100000006108795200000000002800000202501151015425662030600000000000200000000ODAR MIO EBELI                     0301029403
0040000000000000001376977010009000900000346040100000006032919700000000002800000202501151148402123029500000000000200000000ODAR RUIZ LISBETH ALLESSANDRA      0301029403
0040000000000000001381273010009000900000489040100000006032919700000000000300000202501151149372123029500000000000200000000ODAR RUIZ LISBETH ALLESSANDRA      0301029403
0040000000000000001316276010009000900000451040100000004571129500000000002500000202501151135191546030100000000000200000000OLAZABAL SANDOVAL JOU LOUISE       0301029403
0040000000000000002400936010009000900000489040100000006123024800000000000300000202501151624360821030100000000000200000000ORELLANA PUCE JEFFERSON JAVIER     0301029403
0040000000000000002398926010009000900000345040100000006123024800000000003800000202501151624060821030100000000000200000000ORELLANA PUCE JEFFERSON JAVIER     0301029403
0040000000000000000625871010009000900000050040100000004124332100000000003250000202501150905191546030100000000000200000000OROPEZA DOMINGUEZ AHIDEE MARLE     0301029403
0040000000000000000627675010009000900000358040100000004124332100000000000300000202501150905471546030100000000000200000000OROPEZA DOMINGUEZ AHIDEE MARLE     0301029403
0040000000000000001462741010009000900000346040100000006116510600000000002800000202501151207573647024800000000000200000000PADILLA LIZANA LESLY CLARITA       0301029403
0040000000000000002044460010009000900000172040100000007553095400000000000100000202501151449002852023000000000000200000000PAISIG ORBEGOSO ALEJANDRA ANJA     0301029403
0040000000000000001249140010009000900000896040100000004427517300000000000100000202501151120472467024800000000000200000000PAMELA MARITZA CERDAN CORDOVA      0301029403
0040000000000000001249652010009000900000896040100000004427517300000000000100000202501151120542467024800000000000200000000PAMELA MARITZA CERDAN CORDOVA      0301029403
0040000000000000001247351010009000900000896040100000004427517300000000000100000202501151120232467024800000000000200000000PAMELA MARITZA CERDAN CORDOVA      0301029403
0040000000000000001248384010009000900000896040100000004427517300000000000100000202501151120362467024800000000000200000000PAMELA MARITZA CERDAN CORDOVA      0301029403
0040000000000000001245022010009000900000898040100000004427517300000000000200000202501151119522467024800000000000200000000PAMELA MARITZA CERDAN CORDOVA      0301029403
0040000000000000002728967010009000900000151040100000007010375100000000000500000202501151753039170098700000000000200000000PATRICIA JULISSA JAIME JIMENEZ     0301029403
0040000000000000001233771010009000900000851040100000004183356900000000000120010202501151117232852023000000000000200000000PECHE AGUILAR JOSE CARLOS          0301029403
0040000000000000001432468010009000900000345040100000006113006000000000003800000202501151201017371030100000000000200000000PERALES RACCHUMI KATE SCARLETT     0301029403
0040000000000000001433398010009000900000489040100000006113006000000000000300000202501151201137371030100000000000200000000PERALES RACCHUMI KATE SCARLETT     0301029403
0040000000000000001473464010009000900000489040100000006126408200000000000300000202501151210245371029100000000000200000000PEREZ BOZA  ARU NICOLL             0301029403
0040000000000000001057795010009000900000344040100000007117769200000000000100000202501151039241546030100000000000200000000PEREZ CALDAS ALESSANDRA JASSIM     0301029403
0040000000000000002318253010009000900000489040100000007117935900000000000300000202501151603424207025000000000000200000000PEREZ GARCIA FATIMA JHADELIZ       0301029403
0040000000000000002316008010009000900000345040100000007117935900000000003800000202501151603094207025000000000000200000000PEREZ GARCIA FATIMA JHADELIZ       0301029403
0040000000000000001619232010009000900000879040100000007094030000000000001000000202501151245571194029200000000000200000000PEREZ MOROCHO LESLIE KRISE         0301029403
004020150472F     14051030000010001000003580101               00000000000300000202501151154549189098700000000000200000000PEREZ                         SIESQ0301029403
004020150472F     13958250000010001000004360101               00000000005800000202501151152509196098700000000000200000000PEREZ                         SIESQ0301029403
0040000000000000002421193010009000900000345040100000006113045400000000003800000202501151629401307023100000000000200000000PERLECHE FARRO ANGELES VICENTA     0301029403
004020205222F     14443200000010001000001720101               00000000000100000202501151203422850023000000000000200000000PIEDRA                        CABRE0301029403
0040000000000000000859221010009000900000344040100000007073250800000000000100000202501150957124120023100000000000200000000PINEDO ZULOETA CIELO JAZMIN        0301029403
0040000000000000000824066010009000900000346040100000007073250800000000002800000202501150949394120023100000000000200000000PINEDO ZULOETA CIELO JAZMIN        0301029403
0040000000000000000824945010009000900000489040100000007073250800000000000300000202501150949504120023100000000000200000000PINEDO ZULOETA CIELO JAZMIN        0301029403
0040000000000000001565622010009000900000234040100000007321840100000000000080000202501151232341309023100000000000200000000PISCOYA GUEVARA JOSE DIEGO         0301029403
0040000000000000001564190010009000900000234040100000007321840100000000000080000202501151232131309023100000000000200000000PISCOYA GUEVARA JOSE DIEGO         0301029403
0040000000000000001564912010009000900000234040100000007321840100000000000080000202501151232221309023100000000000200000000PISCOYA GUEVARA JOSE DIEGO         0301029403
0040000000000000001563664010009000900000234040100000007321840100000000000080000202501151232051309023100000000000200000000PISCOYA GUEVARA JOSE DIEGO         0301029403
0040000000000000001562719010009000900000234040100000007321840100000000000080000202501151231511309023100000000000200000000PISCOYA GUEVARA JOSE DIEGO         0301029403
0040000000000000000758679010009000900000489040100000006115995000000000000300000202501150935282561030100000000000200000000PISCOYA LORA  ADRIANA  AKARI       0301029403
0040000000000000000756909010009000900000346040100000006115995000000000002800000202501150935052561030100000000000200000000PISCOYA LORA  ADRIANA  AKARI       0301029403
0040000000000000002178915010009000900000845040100000007627002200000000001000010202501151526200821030100000000000200000000PIZARRO SANTISTEBAN DANITZA NA     0301029403
0040000000000000001849749010009000900000489040100000007118309800000000000300000202501151350572463024800000000000200000000PORTAL MUCUSHUA REGGINALDO STE     0301029403
0040000000000000001849077010009000900000345040100000007118309800000000003800000202501151350452463024800000000000200000000PORTAL MUCUSHUA REGGINALDO STE     0301029403
0040000000000000001308269010009000900000344040100000006128411800000000000100000202501151133351873030100000000000200000000PRADO YOVERA JAHANY NOEMI          0301029403
004020141644B     18655620000010001000004360101               00000000005800000202501151355399178098700000000000200000000QUESQUEN                      ESQUE0301029403
004020141644B     18512830000010001000003580101               00000000000300000202501151351249191098700000000000200000000QUESQUEN                      ESQUE0301029403
0040000000000000001644616010009000900000489040100000006055492800000000000300000202501151252281708023300000000000200000000QUESQUEN REQUE LUIS ALBERTO        0301029403
0040000000000000001986429010009000900000137040100000007558876700000000000500000202501151431493647024800000000000200000000QUEVEDO DIAZ CARMEN LISSET         0301029403
0040000000000000001990257010009000900000135040100000007558876700000000000200000202501151432563647024800000000000200000000QUEVEDO DIAZ CARMEN LISSET         0301029403
0040000000000000002355342010009000900000344040100000007136434700000000000100000202501151613062561030100000000000200000000QUEVEDO VALLE ANDRE SEBASTIAN      0301029403
0040000000000000002296932010009000900000345040100000006113047700000000003800000202501151557552852023000000000000200000000QUISPE CARLOS OSCAR GEAMPIERE      0301029403
0040000000000000002297426010009000900000344040100000006113047700000000000100000202501151558042852023000000000000200000000QUISPE CARLOS OSCAR GEAMPIERE      0301029403
0040000000000000002298209010009000900000489040100000006113047700000000000300000202501151558182852023000000000000200000000QUISPE CARLOS OSCAR GEAMPIERE      0301029403
004020170095C     23027860000010001000002730101               00000000000100000202501151559394207025000000000000200000000QUISPE                        HERNA0301029403
0040000000000000001331041010009000900000014040100000000133329400000000001200010202501151138350821030100000000000200000000QUISPE QUISPE MARY LUZ             0301029403
0040000000000000000413582010009000900000346040100000006054564700000000002800000202501150807256753030100000000000200000000RAMIREZ CALDERON MAXIMO ISAIAS     0301029403
0040000000000000000414229010009000900000489040100000006054564700000000000300000202501150807366753030100000000000200000000RAMIREZ CALDERON MAXIMO ISAIAS     0301029403
0040000000000000001685719010009000900000346040100000006056425300000000002800000202501151303206356030200000000000200000000RAMIREZ ESCOBAR GABRIEL            0301029403
0040000000000000001686970010009000900000489040100000006056425300000000000300000202501151303406356030200000000000200000000RAMIREZ ESCOBAR GABRIEL            0301029403
0040000000000000000671957010009000900000345040100000007073108400000000003800000202501150916122850023000000000000200000000RAMIREZ FARRO BRETHMER LUIS JE     0301029403
0040000000000000000674278010009000900000489040100000007073108400000000000300000202501150916442850023000000000000200000000RAMIREZ FARRO BRETHMER LUIS JE     0301029403
0040000000000000002345013010009000900000489040100000006120930000000000000300000202501151610283450025300000000000200000000RAMIREZ FLORES YERLY YASMIN        0301029403
0040000000000000002347128010009000900000345040100000006120930000000000003800000202501151611023450025300000000000200000000RAMIREZ FLORES YERLY YASMIN        0301029403
004020181798K     21454630000010001000004650101               00000000000100000202501151517253538027400000000000200000000RAMIREZ                       LEIVA0301029403
0040000000000000001381083010009000900000344040100000007115630100000000000100000202501151149351038023800000000000200000000RAMIREZ LOCONI SONIA ESTHER        0301029403
0040000000000000001379107010009000900000489040100000007115630100000000000300000202501151149081038023800000000000200000000RAMIREZ LOCONI SONIA ESTHER        0301029403
0040000000000000001375530010009000900000345040100000007115630100000000003800000202501151148211038023800000000000200000000RAMIREZ LOCONI SONIA ESTHER        0301029403
0040000000000000002087095010009000900000345040100000007095831000000000003800000202501151501201309023100000000000200000000RAMOS SALDARRIAGA KRISTINE P.      0301029403
0040000000000000001736285010009000900000896040100000007116999100000000000100000202501151317212561030100000000000200000000RAMOS VEGA XANDER SEBASTIAN        0301029403
0040000000000000002049333010009000900000844040100000007516201500000000001400000202501151450274204025000000000000200000000REGALADO ALVARADO MANUEL MARCE     0301029403
0040000000000000001165634010009000900000489040100000006113053500000000000300000202501151102431546030100000000000200000000REQUEJO VEGA YORCHS ALISSON        0301029403
0040000000000000001166792010009000900000345040100000006113053500000000003800000202501151102571546030100000000000200000000REQUEJO VEGA YORCHS ALISSON        0301029403
0040000000000000002424315010009000900000489040100000007328243100000000000300000202501151630281873030100000000000200000000REYES BERNILLA KIMBERLY AMIARA     0301029403
0040000000000000002423498010009000900000346040100000007328243100000000002800000202501151630151873030100000000000200000000REYES BERNILLA KIMBERLY AMIARA     0301029403
0040000000000000001298125010009000900000489040100000006049744100000000000300000202501151131214120023100000000000200000000REYES CUZQUE KAROLAY ANGIE         0301029403
0040000000000000001297265010009000900000346040100000006049744100000000002800000202501151131094120023100000000000200000000REYES CUZQUE KAROLAY ANGIE         0301029403
0040000000000000001236292010009000900000357040100000001652799500000000000100000202501151117576753030100000000000200000000REYES LA ROSA JOSE GUILLERMO       0301029403
004020141645I     10142580000010001000003580101               00000000000300000202501151030149175098700000000000200000000RIVAS                         AYALA0301029403
004020141645I     09898180000010001000004360101               00000000005800000202501151025029191098700000000000200000000RIVAS                         AYALA0301029403
0040000000000000002585613010009000900000345040100000007115437400000000003800000202501151710330321023100000000000200000000RIVAS PEREZ FABRICIO ADRIAN        0301029403
0040000000000000002586423010009000900000489040100000007115437400000000000300000202501151710450321023100000000000200000000RIVAS PEREZ FABRICIO ADRIAN        0301029403
0040000000000000002228419010009000900000346040100000007116326500000000002800000202501151539371035023100000000000200000000RIVERA CAMACHO ZOILA DEL ROSAR     0301029403
0040000000000000002229814010009000900000489040100000007116326500000000000300000202501151540011035023100000000000200000000RIVERA CAMACHO ZOILA DEL ROSAR     0301029403
0040000000000000001158048010009000900000345040100000006111761900000000003800000202501151101054995023400000000000200000000RIVERA SOSA KARLA DANIELA          0301029403
0040000000000000001285394010009000900000344040100000006135282300000000000100000202501151128350821030100000000000200000000RODRIGUEZ ABAD DAYRON GERARDO      0301029403
0040000000000000002581154010009000900000857040100000007854658300000000000300000202501151709256764023100000000000200000000RODRIGUEZ GONZALES KARLA DEL R     0301029403
0040000000000000002578119010009000900000929040100000007854658300000000000700000202501151708366764023100000000000200000000RODRIGUEZ GONZALES KARLA DEL R     0301029403
004020199112C     08532390000010001000002270101               00000000000200000202501150955549179098700000000000200000000ROJAS                         DELGA0301029403
004020199112C     07802860000010001000002330101               00000000000100000202501150940129182098700000000000200000000ROJAS                         DELGA0301029403
0040000000000000001290964010009000900000358040100000001668847800000000000300000202501151129497372030100000000000200000000ROJAS LOPEZ FAUSTA                 0301029403
0040000000000000001288267010009000900000050040100000001668847800000000003250000202501151129137372030100000000000200000000ROJAS LOPEZ FAUSTA                 0301029403
0040000000000000002504730010009000900000489040100000006023178900000000000300000202501151650222561030100000000000200000000ROJAS LOPEZ SAYRA LISBETH          0301029403
0040000000000000002500887010009000900000346040100000006023178900000000002800000202501151649292561030100000000000200000000ROJAS LOPEZ SAYRA LISBETH          0301029403
0040000000000000001567092010009000900000927040100000007861403400000000000350000202501151232556753030100000000000200000000ROJAS SUCLUPE JOSE HORTENCIO       0301029403
0040000000000000002457469010009000900000489040100000006116003000000000000300000202501151638402852023000000000000200000000ROJAS TAVARA LESLIE YACORI         0301029403
0040000000000000002456615010009000900000345040100000006116003000000000003800000202501151638282852023000000000000200000000ROJAS TAVARA LESLIE YACORI         0301029403
0040000000000000002512177010009000900000345040100000006107400600000000003800000202501151652137371030100000000000200000000ROJAS VALDERA ALEXANDER JESUS      0301029403
0040000000000000002513072010009000900000489040100000006107400600000000000300000202501151652267371030100000000000200000000ROJAS VALDERA ALEXANDER JESUS      0301029403
0040000000000000002172508010009000900000345040100000007205196900000000003800000202501151524381033023100000000000200000000ROMERO DE LA CRUZ CLARA JAZMIN     0301029403
0040000000000000002173721010009000900000344040100000007205196900000000000100000202501151524561033023100000000000200000000ROMERO DE LA CRUZ CLARA JAZMIN     0301029403
0040000000000000002173144010009000900000489040100000007205196900000000000300000202501151524471033023100000000000200000000ROMERO DE LA CRUZ CLARA JAZMIN     0301029403
0040000000000000000629644010009000900000489040100000006113513900000000000300000202501150906155662030600000000000200000000ROQUE MAYANGA JHOSELYN MARYCIE     0301029403
0040000000000000000628201010009000900000345040100000006113513900000000003800000202501150905555662030600000000000200000000ROQUE MAYANGA JHOSELYN MARYCIE     0301029403
0040000000000000001231166010009000900000489040100000006110029400000000000300000202501151116493710023100000000000200000000ROQUE PEREZ MARYORY DE LOS ANG     0301029403
0040000000000000001229952010009000900000346040100000006110029400000000002800000202501151116333710023100000000000200000000ROQUE PEREZ MARYORY DE LOS ANG     0301029403
0040000000000000000564049010009000900000344040100000006123044400000000000100000202501150849442779023000000000000200000000RUBIO CHINGUEL DEYSI               0301029403
0040000000000000000562202010009000900000346040100000006123044400000000002800000202501150849152779023000000000000200000000RUBIO CHINGUEL DEYSI               0301029403
0040000000000000000562935010009000900000489040100000006123044400000000000300000202501150849272779023000000000000200000000RUBIO CHINGUEL DEYSI               0301029403
0040000000000000002091539010009000900000234040100000000796669100000000000960010202501151502340321023100000000000200000000RUBIO VELIZ HECTOR EDGGARDO        0301029403
0040000000000000002092401010009000900000233040100000000796669100000000000100000202501151502490321023100000000000200000000RUBIO VELIZ HECTOR EDGGARDO        0301029403
0040000000000000001855917010009000900000896040100000006081669400000000000100000202501151352502561030100000000000200000000RUIZ CORDOVA JOSE MIGUEL           0301029403
0040000000000000000599765010009000900000344040100000007117758600000000000100000202501150858504204025000000000000200000000RUIZ RAMOS DIEGO ANDERSON          0301029403
0040000000000000001235316010009000900000345040100000007118804700000000003800000202501151117445746023600000000000200000000RUTH NOEMI LIZA GONZALES           0301029403
0040000000000000001242548010009000900000489040100000007118804700000000000300000202501151119195746023600000000000200000000RUTH NOEMI LIZA GONZALES           0301029403
0040000000000000002028260010009000900000346040100000006130232800000000002800000202501151444086310023200000000000200000000SAAVEDRA GUEVARA NESTOR JUNIOR     0301029403
0040000000000000001455833010009000900000489040100000006130232800000000000300000202501151206196310023200000000000200000000SAAVEDRA GUEVARA NESTOR JUNIOR     0301029403
0040000000000000001885800010009000900000172040100000007429004500000000000100000202501151401492561030100000000000200000000SAAVEDRA PINTADO CARLOS IVAN       0301029403
0040000000000000001884880010009000900000172040100000007429004500000000000100000202501151401332561030100000000000200000000SAAVEDRA PINTADO CARLOS IVAN       0301029403
0040000000000000001701179010009000900000358040100000007335051900000000000300000202501151307316356030200000000000200000000SALAZAR VELASQUEZ DORCAS ISABE     0301029403
0040000000000000001697979010009000900000206040100000007335051900000000003250000202501151306376356030200000000000200000000SALAZAR VELASQUEZ DORCAS ISABE     0301029403
0040000000000000001774366010009000900000489040100000006111002200000000000300000202501151328240852029100000000000200000000SALDA A FLORES ROYER DEL PIERO     0301029403
0040000000000000001765988010009000900000345040100000006111002200000000003800000202501151326000852029100000000000200000000SALDA A FLORES ROYER DEL PIERO     0301029403
0040000000000000001746699010009000900000344040100000007096354400000000000100000202501151320267371030100000000000200000000SAMILLAN APAGE O KATHERINE AB     0301029403
0040000000000000002336045010009000900000345040100000006285752900000000003800000202501151608111729030400000000000200000000SANCCHEZ FARRO AN YANINA           0301029403
0040000000000000002337743010009000900000489040100000006285752900000000000300000202501151608361729030400000000000200000000SANCCHEZ FARRO AN YANINA           0301029403
0040000000000000001303164010009000900000896040100000007654618900000000000100000202501151132266434024800000000000200000000SANCHEZ CONTRERAS KARLA ISABEL     0301029403
